:020000040800F2
:1000000030040020F12C0008C52B0008C72B000885
:10001000C92B0008CB2B0008CD2B000800000000E6
:10002000000000000000000000000000CF2B0008CE
:10003000D12B000800000000D32B0008D52B0008AE
:10004000412D0008452D0008492D00084D2D0008C0
:10005000512D0008552D0008592D00085D2D000870
:10006000612D0008652D0008692D00086D2D000820
:10007000712D0008752D0008792D00087D2D0008D0
:10008000812D0008852D0008892D00080000000042
:100090000000000000000000000000008D2D00089E
:1000A000912D0008DD2B0008992D00089D2D0008DA
:1000B000A12D0008A52D0008A92D0008AD2D0008D0
:1000C000B12D0008B52D0008B92D0008BD2D000880
:1000D000C12D0008C52D0008C92D0008CD2D000830
:1000E000D12D0008D52D0008D92D000800000000F2
:1000F0000000000000000000000000000000000000
:1001000000000000000000000000000000000000EF
:100110000000000000000000DD2D0008E12D0008B7
:100120002DE9F04FA1B0824602AE002017461D46D1
:10013000029170620DF144080AE017F8011B029861
:10014000D0470290002800F08B82706A401C7062D9
:10015000387808B9706A85E22528EED10020F06071
:1001600030617061B061F061306201E040F0010027
:1001700017F8011F2029F9D023290DD02B2904D0ED
:100180002D2906D030290AD00CE040F0020080B2C0
:10019000EEE740F00400FAE740F00800F7E740F02F
:1001A0001000F4E72A290DD129680A1D2A60096880
:1001B000F162002904D5494240F00400F16280B2A6
:1001C0007F1C13E00021F1620BE0F16A6FF0004345
:1001D000994205D001EB810302EB43013039F16212
:1001E0007F1C3A78A2F130010A29EED339782E2902
:1001F00003D04FF0FF31B1621EE017F8011F2A292A
:1002000006D129680A1D2A607F1C0968B16213E0C3
:100210000021B1620BE0B16A6FF00043994205D052
:1002200001EB810302EB43013039B1627F1C3A7864
:10023000A2F130010A29EED330860FF6C0303978AA
:1002400000F000FE08B117F8010B8DF83A009DF898
:100250003A00682802BF39786829622005D06C28E6
:1002600004BF38786C2803D171208DF83A007F1CC8
:1002700011A8B0603978B1F1250023D01C3871D0B5
:10028000001F02286ED9133800F09780093869D012
:10029000801E00F02B81401E00F0D480401E0228FA
:1002A00060D9001F00F0CE80401F30D0401E00F00B
:1002B0008480401E20D0C01E09D0801E7DD0C01E6C
:1002C0007BD01BE1F068411CF160252120E128680A
:1002D000011D29600068B26A7060002A02D500F032
:1002E000CDFD07E0002100F0E9FD00281ABF71688C
:1002F000401AB06A30610DE12868011D29600021B3
:100300000068CDE9000111A870607821EAE09DF84D
:100310003A00622818D0682806D06A280BD06C28CA
:1003200019D0712807D016E02868011D29600068DF
:10033000716A0180EEE02A68101D28601268706AF8
:10034000C117C2E90001E5E02868011D29600068C5
:10035000716A0170DEE02868011D29600068716A19
:100360000160D7E02868C01D20F00700286000F178
:1003700008022A60D0E90023CDE90023002B04D530
:10038000F068421CF2602D220DE0308E820704D509
:10039000F068421CF2602B2205E0C00705D5F0682A
:1003A000421CF260202200F80820F06811AA801890
:1003B000706000A800F0E2F9ACE09DF83A006C280B
:1003C00008BF2A6811D0712808BF2A6802D02A689D
:1003D0006A280AD1D21D22F007022A60144604F1CD
:1003E00008022A60D4E9002303E0131D2B600023D8
:1003F0001268CDE90023682808BF92B207D06228AE
:1004000008BFD2B203D0742818BF7A2802D10023C3
:10041000CDE9002396F8300000075FD5DDE9002321
:10042000002B08BF002A59D041F02000782855D170
:10043000F068302200F80820401C421CF26000F8EE
:1004400008104BE09DF83A0062280CD0682810D0C4
:100450006A281AD06C2823D0712816D074281FD08F
:100460007A280CD01CE02868021D2A6090F9002030
:100470001AE02868021D2A60B0F9002014E02868FC
:10048000021D2A60002302680FE02868C01D20F0CA
:100490000700286000F108022A60D0E9002304E088
:1004A0002868021D2A600268D317CDE90023002BBB
:1004B00004DAF068421CF2602D220DE0308E8207D3
:1004C00004D5F068421CF2602B2205E0C00705D578
:1004D000F068421CF260202200F80820F06811AA9F
:1004E0008018706000A800F0C0F813E0F068411CAC
:1004F000F16029680A1D2A60096809E0F068421C59
:10050000F260252200F8082021B1F068421CF26058
:1005100000F80810F06AF168401AB169401A3169B0
:10052000401AF169401A7169401A316AA0EB010959
:1005300096F830007F1C400710D420208DF8400032
:10054000002409E0012310AA00A9504600F03EFC57
:10055000002840F08580641C4C45F3DBF4680DF105
:10056000440B0AE01BF8011B0298D04702900028B8
:1005700076D0706A401C7062641E002CF2D130206C
:100580008DF840004FF0000BB46909E0012310AA78
:1005900000A9504600F01AFC002861D10BF1010BB4
:1005A000A345F3DB3469D6F804B00AE01BF8011B5D
:1005B0000298D0470290002852D0706A401C7062A6
:1005C000641E002CF2D130208DF840004FF0000B5B
:1005D000F46909E0012310AA00A9504600F0F6FBD7
:1005E00000283DD10BF1010BA345F3DB30697168A5
:1005F000746900EB010B09E01BF8011B0298D0475E
:10060000029068B3706A401C7062641E002CF3D1C3
:1006100030208DF840004FF0000B346A08E00123D1
:1006200010AA00A9504600F0D1FBC8B90BF1010B8C
:10063000A345F4DB96F8300040077FF589AD202014
:100640008DF84000002400E0641C4C45BFF680ADEE
:10065000012310AA00A9504600F0B8FB0028F3D0EF
:100660004FF0FF3021B0BDE8F08F2DE9FA47064684
:1006700082B035690A466F2A08BF082705D041F0C5
:100680002000782814BF0A271027D6E900013C244F
:1006900080468946642A18BF692A05D1002903DAF1
:1006A000D8F1000869EB4909B9F1000F08BFB8F1AA
:1006B000000F0CD1306B50B9082F3BD196F83800A1
:1006C000000737D530203B2485F83B0032E0CDE9E8
:1006D0000089FB17404649463A4600F01BFCB846E5
:1006E000A8FB0023DDE90089A8EB02023032A4F167
:1006F000010AD2B254463A2A03DB9DF80830513B36
:100700009A180AF8052080465FEA010908BFB8F187
:10071000000F03D0F06861198842D8D3082F09D19F
:1007200096F83800000705D5605D302802D0641EB9
:1007300030206055C4F13C00B0616119F160316B4B
:10074000884207DA081A30624FF6EF71308F08409E
:10075000308710E000290ED596F8381001F014010A
:10076000102908D1716B7269891A326A891A081ABC
:100770000128A8BF306204B0BDE8F0872DE9F24F30
:1007800004468EB0D4E90001CDE9020104AE9DF823
:10079000380040F02000009061280AD0206B00282B
:1007A00048BF062004D404BF0098672801D1012067
:1007B00020636168C1F30A5040F2FF7290421CD17D
:1007C000080304BF2068002809D10320A0619DF818
:1007D000380061381A2836D30FF2346108E003205C
:1007E000A0619DF8380061381A2829D30FF21861EA
:1007F000E068032200F006FCB5E1012816DA204685
:1008000000F03BFC012811DB002700200099612942
:1008100020D1E168302201F8012B4A1CE2609DF8EA
:100820003820612A0CBF782258220FE0626840F21B
:10083000FE3161F31E52471A62604FF0FF30E5E768
:100840000FF2C051D4E70FF2C451D1E70A706169C9
:10085000891C616110B9002500277BE1009861289F
:1008600040F09680206B00284CBF2125451CDDE917
:1008700002012DB26E1CD4E900890022002300F091
:100880001DFC3ABF89F00040CDE90280CDE9028924
:100890003F1F8DF810200DF1110801E000F207084C
:1008A000012E32DBDDE902010022002300F01EFCF4
:1008B0002BD21C2102A800F031FCDDE9020100F07E
:1008C000B3FCF61F8146012E09DB00F0D9FC02467D
:1008D0000B46DDE9020100F0EBFCCDE9020108F274
:1008E0000700072105E009F00F0200F8012D4FEA8B
:1008F0002919B9F1010F01DB491EF4D5491E5CBF6E
:10090000002200F8012DF9D5C8E70DF11100A8EB80
:1009100000010DF11106A942B8BF0D462DB2280005
:100920002FD4884206DA04A9411849780829A8BFBB
:100930000F2100DA002104AA821800E06D1E12F8CF
:100940000139401E8B42F9D00F2904D104A9411866
:100950004A78521C4A70002802D504AE6D1C3F1D17
:100960002DB2681E0DD481190A783032D2B23A2ADB
:1009700003DB9DF838303A3B9A1801F80129401EF4
:10098000F2D5206B002840F1E580681E2063E1E08D
:10099000DDE902010022002300F090FB3CBF81F062
:1009A0000041CDE902013FB247F2975078434849F0
:1009B000DFF820B190FBF1F73FB2C7F1070692468E
:1009C000012E19DBDDE90289F00707D552465B46A7
:1009D0004046494600F02CFD804689467610504638
:1009E000594652465B4600F023FD82468B46002E58
:1009F000EAD1CDE9028921E076429046DFF8D8902D
:100A000012E0F00707D552465B464046494600F0E3
:100A10000FFD8046894676105046594652465B4641
:100A200000F006FD82468B46002EEAD1DDE9020188
:100A300042464B4600F0CEFDCDE902010098662803
:100A40000CBF07F10A000620216B4518142DA8BF22
:100A5000132530208DF810000DF11106DFF87C9081
:100A6000012D3DDBDDE9020100F0F4FB06F1080198
:100A700004220A23B0FBF3F303EB8306A0EB46004A
:100A8000303001F8010D0A20B3FBF0F000EB8006D6
:100A9000A3EB4603303301F8013D521EE9D1083D76
:100AA00001F10806012DDBDBDDE9020100F0D2FBDC
:100AB00000F0F0FB02460B46DDE9020100F0F8FB16
:100AC00000224B4600F0B4FCCDE90201CAE700BFAA
:100AD000A0860100000024400000F03F84D7974129
:100AE0000DF11100301A0DF1110602E0401E7F1EBB
:100AF000761C31783029F9D00099662902D13FB2AD
:100B0000791C03E065290CBF01210021226B8D189F
:100B10002DB2A842B8BF05462DB229001AD4814291
:100B200004DA885D3528A8BF392000DA30208A1918
:100B3000521E00E06D1E12F80139491E8342F9D0A1
:100B4000392802D1885D401C8855002902D5761EBF
:100B50006D1C7F1C3FB29DF8381000972BB23246B7
:100B6000204600F003F80FB0BDE8F08F2DE9F04308
:100B7000054685B01E46D5F8308089461746012EB9
:100B800002DA01260FF28C2749F02000BDF930402F
:100B9000662808BF641C17D0672840F0818014F1D4
:100BA000040FC0F28380444580F2808095F83800BD
:100BB000641C000702D44645B8BFB04624B2B8EB67
:100BC000040848BF4FF00008E868A96924B2012C66
:100BD00025DA30234A1C0B54B8F1010F03DA95F8DB
:100BE0003810090702D52E211154521CAA6118EBA6
:100BF000040FB8BFC8F1000424B26142A044696286
:100C0000B045B8BF464636B2EE613246AB693946AA
:100C1000181800F0F7F9A8EB0600A862BFE0081862
:100C2000A64218DA3246394600F0ECF9A969711883
:100C3000A961A01B6862B8F1010F03DA95F83800CA
:100C4000000705D5E8682E220A54E869401CE861CF
:100C5000C5F82880A3E02246394600F0D3F9A869F8
:100C60002018361BB8F1010F03DA95F83810090780
:100C700003D5E9682E224254401C36B2A861B04523
:100C8000B8BF4646EB6836B23246E119C01800F0EC
:100C9000B9F9A8693018A861A8EB060068627EE07F
:100CA0004846612816D14FF0700917E0464504DA2E
:100CB00095F83810090758BFB046B8F1010848BF89
:100CC0004FF00008B9F1670F14BF4FF045094FF01E
:100CD000650903E0412808BF4FF05009A969E86899
:100CE00017F8013B0B544A1CB8F1010F05DA95F8CF
:100CF0003810090758BFAA6117D52E211154531C6B
:100D0000AB61B8F1010F10DB761E36B2B045B8BF4B
:100D1000464636B232463946181800F073F9A869CB
:100D20003018A861A8EB06006862A869E96847184E
:100D3000200007F8019B03D42B2007F8010B03E0E8
:100D40002D2107F8011B444200260DF1080808E098
:100D50000A2200A800F061FD019808F8010B761C3A
:100D6000009C21B20129F3DA022E06DA49F02000B4
:100D7000652804BF302007F8010B4EB9302007F872
:100D8000010B07E0761E02A8305C303007F8010B3B
:100D9000012EF7DAA869E9684018381AE86195F871
:100DA000380000F0140010280DD16869A9690818EE
:100DB000696A0818E9690818A96A0818696B8842FD
:100DC000BCBF081A286205B0BDE8F083F8B5044638
:100DD0000D4616461F46002004E0E86A401CE86203
:100DE0007F1E002047B116F8011BA868A047A86025
:100DF0000028F2D14FF0FF30F2BD0000686A6C7439
:100E00007A4C00006E616E004E414E00696E6600C5
:100E1000494E4600300010B450F8041B81B10268FE
:100E20001218001D50F8043BDC0744BFA9F101046F
:100E3000E31852F8044B43F8044B091FF9D1EBE7D0
:100E400010BC70470278C9B28A421AB11CBF10F8B0
:100E5000012FF9E718BF0020704750F8041B61B15B
:100E600050F8042BD30744BFA9F101039A180023BB
:100E700042F8043B091FFAD1EFE7704700F1010384
:100E8000810704D010F8011B89B18107FAD10268EB
:100E9000B2F10131914311F0803F04BF50F8042FAB
:100EA000F6E710F8011B11B110F8011BFBE7C01A9F
:100EB00070470268531C036011707047C9B2830702
:100EC00006D0521E22D310F8013B9942F7D11FE001
:100ED000083A13D302F1040241EA012141EA014137
:100EE00050F8043B121F21BF4B40A3F1013C2CEAF8
:100EF000030C1CF0803FF3D0C9B2001F083210F879
:100F0000013B521E28BF91EA030FF8D818BF0120F9
:100F1000401E70471B4213D1094236D12AB1844684
:100F2000B0FBF2F002FB10C2704700F07DBCFCD3B6
:100F30000022002370470B000200002100207047B0
:100F4000904271EB030CF6D370B5B1FA81F4B3FAA9
:100F500083F52C1BA340C4F1200532FA05F6334378
:100F6000A2405FF00046E64002E05B085FEA320222
:100F7000841A71EB030524BF204629467641F4D339
:100F800002000B003000002170BD012ACFD970B5DE
:100F9000140C20D0B1FA81F4B2FA82F5C4F1200425
:100FA0006419B4F12006D6D3B2405FF00044F44097
:100FB000002502E052085FEA3303C61A71EB020E05
:100FC00024BF3046714664416D41F3D302000B00EB
:100FD0002000290070BD0C46B1FBF2F102FB114567
:100FE0002D0445EA1045B5FBF2F402FB145580B21E
:100FF00040EA0545B5FBF2F002FB105240EA04401E
:1010000070BD000062B38B0708D0521E11F8013B7F
:1010100000F8013B00F024808B07F6D1830740F0F5
:10102000208000BF103A07D330B4B1E83810103A2E
:10103000A0E83810F9D230BC530724BFB1E808103B
:10104000A0E8081044BF51F8043B40F8043BD20725
:1010500024BF31F8022B20F8022B44BF0B78037019
:101060007047083A07D3B1E80810083A40F8043B43
:1010700040F804CBF7D25307E4E730B4436803F0F9
:10108000004201211B031B0B436004BF0368002BBC
:1010900008D10DE00368DD0F45EA440444605B00BD
:1010A0000360491E4468E302F4D523031B0B43602D
:1010B00043681A434260084630BC70474FF4001C36
:1010C0001CEB410F94BF1CEB430F09E041EA030CFA
:1010D00050EA4C0C52EA0C0C03D2994208BF9042E1
:1010E000704714BF8B428242704700004FF4001CCF
:1010F0001CEB410F94BF1CEB430F09E041EA030CCA
:1011000050EA4C0C52EA0C0C03D28B4208BF8242CC
:10111000704714BF994290427047010070B5044671
:101120000D466068C0F30A5040F2FF71884207D153
:101130006068000304BF2068002817D0022070BD3B
:1011400020B92046FFF799FF012867DA012D0FDB50
:1011500040F2FF71091A8D420AD36068002847BF28
:1011600000202F4900202F49C4E90001012070BD53
:101170004142A942616806DA6FF31E51401941EA03
:101180000050606041E0401E63680122451962F32F
:101190001F5305F1350001F000416360352803D38A
:1011A00061600020206070BD002215F11F0F04DA7D
:1011B00022682360002020356060684213D0521EF0
:1011C00025689241C0F12003D2439D4045EAD27286
:1011D00025686668C54006FA03F32B4323606368FD
:1011E00023FA00F06060606808436060B2F1004F6D
:1011F00003D80DD12078C0070AD52068401C206094
:10120000206828B96068401C60604FF0FF3070BDF6
:101210006068884204BF20680028F6D1002070BDB5
:101220000000F0FF0000F07FF446400D40EAC120CE
:10123000490006D200F014F8004248BF6FF00040A9
:10124000604700F00DF84FF0004188428CBF08461F
:1012500040426047400D40EAC120490080F00D80C7
:1012600040F00040490DA1F58061491C05D4D1F141
:101270001F0154BFC840C01770474FF000007047AF
:10128000010040F10980F446404200F005F851F0B9
:1012900000416047010000BF09D0B0FA80F18840EA
:1012A000C91CC1F58461090501EBD02140057047D7
:1012B00070B44FF0004591EA030F44BF6B4000F05B
:1012C000B5BA00BF841A71EB030604D26E40001B4E
:1012D000B141121973414FF4001C1CEB410F34BF94
:1012E0007CEB430684E00C0DA4EB1356362E7DDC1C
:1012F000012E43DC45EAC32343EA525312BFD20214
:1013000092025B08240545EAC12141EA5051D2EB23
:10131000C020994125D407D1B0FA80F610FA06F121
:1013200064D00020203608E0B1FA81F6B140C6F161
:10133000200220FA02F21143B0404FEAF474B4EBF9
:10134000465434F001064FEA74040AD8D6F5001664
:10135000760D04F00044F04061FA06F25040F1408E
:101360004840C00A40EA415021F0004128BF5FEAEE
:10137000500550F1000044EBD12137E045EAC3238A
:10138000DB0A45EAC121C90AB6F120050EDD42EAB1
:101390000242120CC5F1200603FA06F6EB4042EABF
:1013A00006056D42984161F100010DE062FA06F513
:1013B000F240554063FA06FC82EA0C02F3405A40C0
:1013C0006D42904161EB030111F4801F05D1641E51
:1013D000620502D06D004041494121F4801143086B
:1013E00075F1004350F1000041EB045170BC7047AF
:1013F0001CEB410F15D223F0004352EA43060BD0F9
:101400004FEA4C0CBCEB410F04D80C0D661E342E79
:10141000B7DDEBE7801A994150EA410608BF002189
:10142000E4E708BF1CEB430F28BF6FF00001DDE7C6
:10143000B0B581EA030C0CF0004C40F2FF7515EAE0
:1014400011541DBF15EA1357AC42AF4239E0E419FD
:1014500023EA455343F48013C90241F0004141EAB5
:10146000505EC7021100A7FB020200284FF00000E7
:10147000EEFB01204FF00001E3FB072118BF42F013
:101480000102401800214941E3FB0E01A4F58064EC
:101490000F0302D252004041494154F101046CDD76
:1014A000470872F1004250F1000051EB0451A1F5E0
:1014B00080115CBF41EA0C01B0BD4CEA055100202F
:1014C000B0BD05EA1357AC4214BFAF4241E050EA49
:1014D000410E1CBF52EA430E02E061460020B0BD3F
:1014E00024423C441BD15FEA070EF6D0090302BF39
:1014F00001460020AEF1140EB1FA81F7AEEB0704FD
:1015000001FA07FE0C37C7F1200100FA07F7C840BF
:101510004EEA000E23EA455343F48013A2E733F06A
:101520000043B3FA83F704BFB2FA82FE77440B3F5D
:10153000E41BB7F1200E2FBF02FA0EF3BB40C7F138
:10154000200E22FA0EFE38BF43EA0E03BA40641C96
:1015500082E750EA410E14BF52EA430E6FF00001D9
:101560004FF4001717EB430F8ABF194617EB410FD3
:10157000B5E74CEA05510020B0BDD4F10104B4F147
:1015800020070FDAC4F12007520828BF42F00102F9
:1015900010FA07F501FA07F7E1BF2A43E0403843A4
:1015A000E1400FE0352C98DCC7F1200452EA4002FC
:1015B00020FA07F218BF42F0010231FA07F0A14009
:1015C0000A43002172F1004250F1000051EB0C017E
:1015D000B0BD0100F0B540F2FF7581EA030C0CF0DC
:1015E000004C15EA11541DBF15EA1357AC42AF4227
:1015F000E5E0BC41C1F31301C3F31303801A994121
:1016000043F4801304D2641E4000494180185941BC
:10161000C90241EA5051B1FBF3F603FB1611A2FBDC
:101620000675D7EBC020A94102D2761E8018594119
:10163000C90241EA5051B1FBF3FE03FB1E11A2FBAC
:101640000E75D7EBC020A94103D2AEF1010E801870
:101650005941890241EA9051760546EA8E2EB1FB46
:10166000F3F603FB1611A2FB0675D7EB8020A94108
:1016700002D2761E80185941C90241EA50514EEA01
:10168000060EB1FBF3F603FB1611A2FB0675D7EBB2
:10169000C020A94102D2761E80185941C90241EAF0
:1016A0005051B1FBF3F703FB1711A2FB0735D3EB46
:1016B000C020A94167F100070CBF004247F00107B5
:1016C00066F3D5274FEA1E31B80814F5806412DDA1
:1016D000BD0775F1004250EB0E5051EB045111F56E
:1016E000801F5CBF41EA0C01F0BD4CF07F6141F00E
:1016F000E0410020F0BDBD076D0840EA0E5041F406
:101700008011D4F10104B4F120060ADAC4F12006F4
:101710000200E04001FA06F3E1401843B2401543ED
:101720000EE0342C13DCC6F1200445EA40056D08B8
:1017300020FA06F2154321FA06F0A1400D430021DC
:1017400075F1004250F1000051EB0C01F0BD00209A
:101750005FEA0C01F0BDCFB992185B41B3FA83F791
:1017600004BFB2FA82F6BF190B3FB7F120062FBFB4
:1017700002FA06F3BB40C7F1200622FA06F638BF8C
:101780003343BA401CB1E419641E33E77F4231F0A1
:101790000041B1FA81F404BFB0FA80F6A4190B3C01
:1017A000B4F120062FBF00FA06F1A140C4F12006D3
:1017B00020FA06F638BF3143A0403C1B1AE7AC4282
:1017C0001ABF05EA1357AF4212E050EA41061CBFA8
:1017D00052EA4306BFE750EA4107304661461CBF64
:1017E00041EA0551F0BD52EA430C08BFC143F0BDC8
:1017F00000204FF4001616EB410F98BF16EB430F75
:1018000008BF16EB410F24BFC14305E016EB430FA1
:101810000CBF61464CEA0551F0BD91FBF2F303FBAE
:101820001211C0E90031704770470600841A71EB4D
:10183000030603D2001BB141121973414FF4001C7F
:101840001CEB410F34BF7CEB430443E00C0DA4EBD5
:101850001356352E50DC45EAC323DB0A45EAC12185
:10186000C912B6F120050DDD63FA05F6EB4086EAF4
:101870000305124218BF45F00105C01851F10001DF
:101880000CD213E062FA06F5F2405540F3415A409B
:10189000B340F3405A408018594107D349085FEAE2
:1018A00030005FEA350528BF45F0010501F58011DC
:1018B000420875F1004250F1000041EB045170BC48
:1018C0004FF4001C1CEB410F38BF70470020090D7E
:1018D000090570471CEB410F10D252EA43060BD0AA
:1018E000BCEB410F05D80C0DAB43661E342EB5DDA5
:1018F00002E0AB438018594170BC704770BC704720
:1019000040B2002809D540B210F00F00DFF83027B0
:101910008018090100F8041C04E040B2DFF8242715
:1019200009018154704780B5B0F1807F01D3012057
:1019300013E00002000A401EDFF80C1708600F21B8
:101940005FF0FF30FFF7DCFFDFF8000700210160E8
:10195000DFF8FC0607210160002002BD80B54120B0
:101960008DF8000001215FF0805000F008FC00209D
:1019700000F04AFC012000F047FC002000F062FC6F
:10198000012000F05FFC0021002000F075FCDFF872
:10199000C40600684FF47A71B0FBF1F0FFF7C3FFA3
:1019A000002800D0FEE700F050F800F0BFF800F08B
:1019B000DDF900F0B3F970208DF8000001233C221E
:1019C000242100A800F066F901233A22242100A86E
:1019D00000F060F900208DF8000001233C22252151
:1019E00000A800F057F901233A22252100A800F0B1
:1019F00051F900208DF8000001233C22262100A887
:101A000000F048F901233A22262100A800F042F90B
:101A100057208DF8000001233C22202100A800F06F
:101A200039F901233A22202100A800F033F9FEE71A
:101A3000DFF824060068002806D0DFF81C060068DE
:101A4000401EDFF814160860704700B585B001210C
:101A5000082000F084FB01215FF4001000F08FFBF0
:101A6000C020ADF8000003208DF802001C208DF886
:101A7000030000A9DFF8E40500F064FC01215FF435
:101A8000001000F09CFB00215FF4001000F097FBB9
:101A900001A800F067FD0020ADF808004BF6FF70CC
:101AA000ADF80A004FF48060ADF80E004FF48040AE
:101AB000ADF8100042F21070019001A9DFF8A00506
:101AC00000F0D4FC0121DFF8980500F05BFD302028
:101AD000ADF8000010208DF8030003208DF80200FF
:101AE00000A9DFF8780500F02DFC1021DFF86C0567
:101AF00000F08CFC2021DFF8640500F08AFC4FF434
:101B00004070ADF8000010208DF8030003208DF820
:101B1000020000A9DFF8440500F014FC4FF4407106
:101B2000DFF8380500F072FC05B000BD00B585B0E7
:101B300001214FF4804000F012FB0121042000F04D
:101B40000EFB4FF4C060ADF8000018208DF80300C4
:101B500003208DF8020000A9DFF8080500F0F2FB71
:101B6000DFF8040500F092FD01A800F03FFE5FF4ED
:101B7000E130019001A9DFF8F00400F0CEFD012171
:101B8000DFF8E40400F040FE05B000BDF8B5040045
:101B90000D0016001F0072B65FF40031DFF8C004BC
:101BA00000F053FD0028F7D10121DFF8B40400F064
:101BB000F7FCDFF8B814DFF8A80400F02CFD0028CB
:101BC000F7D000223100C9B2DFF8940400F018FD0C
:101BD000DFF89C14DFF8880400F01DFD0028F7D022
:101BE0000121DFF87C0400F0CDFCFFB2022F00DB06
:101BF000803D2900C9B2DFF8680400F0FBFCDFF883
:101C00007414DFF85C0400F006FD0028F7D0012111
:101C1000DFF84C0400F0C4FCDFF85014DFF8400497
:101C200000F0F9FC0028F7D001223100C9B2DFF83A
:101C3000300400F0E5FCDFF84014DFF8240400F085
:101C4000EAFC0028F7D0FFB2002F1CD0FFB2012F12
:101C500009D10021DFF8080400F0BEFC0121DFF803
:101C6000000400F0ABFCDFF81414DFF8F40300F01C
:101C7000D2FC0028E7D0DFF8E80300F0BEFC2070BB
:101C8000641C7F1EDFE70121DFF8D40300F0A4FC11
:101C900062B6F1BDF8B504000D0016001F0072B663
:101CA0000121DFF8BC0300F07BFCDFF8C013DFF894
:101CB000B00300F0B0FC0028F7D000223100C9B218
:101CC000DFF89C0300F09CFCDFF8A413DFF890031E
:101CD00000F0A1FC0028F7D02900C9B2E04800F0CC
:101CE00089FCDFF89013DE4800F095FC0028F8D05E
:101CF000FFB2002F0CD02178D94800F07BFCDD49E1
:101D0000D74800F088FC0028F9D0641C7F1EEFE75C
:101D10000121D34800F052FC62B6F1BDE0B50121CB
:101D20004FF4006000F01BFA00A800F0DFFD002077
:101D3000ADF806000020ADF8020045F6C050ADF841
:101D400000001420ADF8040000A9CD4800F07CFD8F
:101D50000121CB4800F0FAFD01220121C84800F022
:101D6000DFFD0121C64800F0CDFD07BD80B519207B
:101D70008DF8000001208DF8030000A800F0EAFDB6
:101D800001BD10B5A2B0002000F066FA01233C228C
:101D9000082106A8FFF7FAFE01233C2209210DF1D4
:101DA0001900FFF7F3FE01233C220A210DF11A006E
:101DB000FFF7ECFE01233C220B210DF11B00FFF786
:101DC000E5FE01233C220C2107A8FFF7DFFE0123DB
:101DD0003C220D210DF11D00FFF7D8FEBDF91C00BE
:101DE000C0000190BDF91A00C0000090BDF91800B4
:101DF000C300A4480268A44908A800F0E7FD002435
:101E00000CE08021984800F011FD0028F9D008A8C6
:101E1000215C89B2944800F005FD641C08A8205C90
:101E20000028EED101233A22082106A8FFF7AEFED2
:101E300001233A2209210DF11900FFF7A7FE012322
:101E40003A220A210DF11A00FFF7A0FE01233A22DF
:101E50000B210DF11B00FFF799FE01233A220C2103
:101E600007A8FFF793FE01233A220D210DF11D0073
:101E7000FFF78CFEBDF91C00C0000090BDF91A00F0
:101E8000C300BDF91800C200804908A800F09EFDFB
:101E900000240CE08021744800F0C8FC0028F9D030
:101EA00008A8215C89B2704800F0BCFC641C08A83A
:101EB000205C0028EED101233C22282106A8FFF750
:101EC00065FE01233C2229210DF11900FFF75EFE7A
:101ED00001233C222A210DF11A00FFF757FE0123AE
:101EE0003C222B210DF11B00FFF750FE01233C2269
:101EF0002C2107A8FFF74AFE01233C222D210DF1DA
:101F00001D00FFF743FEBDF91C00FFF7B9F90022E1
:101F10005F4BFFF78DFACDE90401BDF91A00FFF719
:101F2000AFF900225A4BFFF783FACDE90201BDF960
:101F30001800FFF7A5F90022554BFFF779FACDE914
:101F4000000150480268534908A800F03FFD0024F2
:101F50000CE08021444800F069FC0028F9D008A872
:101F6000215C89B2404800F05DFC641C08A8205C3C
:101F70000028EED101233A22282106A8FFF706FE09
:101F800001233A2229210DF11900FFF7FFFD01235A
:101F90003A222A210DF11A00FFF7F8FD01233A2217
:101FA0002B210DF11B00FFF7F1FD01233A222C211B
:101FB00007A8FFF7EBFD01233A222D210DF11D00AB
:101FC000FFF7E4FDBDF91C00FFF75AF90022304B82
:101FD000FFF72EFACDE90201BDF91A00FFF750F91B
:101FE00000222B4BFFF724FACDE90001BDF91800C0
:101FF000FFF746F90022264BFFF71AFA02000B0002
:10200000254908A800F0E2FC00240CE080211648D5
:1020100000F00CFC0028F9D008A8215C89B2124815
:1020200000F000FC641C08A8205C0028EED11548D4
:102030000068401C1349086022B010BD0000000079
:1020400018ED00E000E400E014E000E018E000E03B
:1020500010E000E02000002024000020000C0140DF
:102060000054004000080140003801400100030016
:102070008200070084000700020003004000030004
:10208000002C014028000020842C0008DC2C0008D3
:102090000040AF3F482C0008682C000870B40022B4
:1020A00000210023002400254D4E366816F00C0652
:1020B0003200002A04D0042A05D0082A06D021E0E4
:1020C0004949016020E0484901601DE04449096830
:1020D00011F47011424A126812F48033890C891C81
:1020E000002B03D1414A514301600AE03D4A126886
:1020F00012F00F02551C3C4AB2FBF5F201FB02F153
:10210000016001E0384901603549096811F0F002C9
:1021100012093749545C0168E1404160304909685F
:1021200011F4E062120A3249545C4168E140816076
:102130002B49096811F46052D20A2D49545C416858
:10214000E140C1602649096811F44042920B2949D7
:10215000545CC168B1FBF4F1016170BC7047C9B255
:10216000002905D02449096808432349086005E08F
:102170002149096831EA00001F4908607047C9B267
:10218000002905D01D49096808431C49086005E07D
:102190001A49096831EA0000184908607047C9B255
:1021A000002905D01649096808431549086005E06B
:1021B0001349096831EA0000114908607047C9B243
:1021C000002905D00F49096808430E49086005E059
:1021D0000C49096831EA00000A49086070470000AC
:1021E000041002402C10024000127A0000093D0049
:1021F000000000201C000020181002401C100240AB
:102200000C1002401010024010B582B004000121F1
:10221000E4B2424850F82400FFF7A1FFE4B240487E
:1022200030F81400ADF8000010208DF803000320F2
:102230008DF8020000A9E4B23A4850F8240000F0FA
:1022400081F813BDC0B2374951F82010C0B2344AEA
:1022500032F8100008617047C0B2324951F82010BE
:10226000C968C0B22E4A32F810205140C0B22D4A7F
:1022700052F82000C160704730B585B004000D00F1
:102280000121E4B2284850F8240050F00100FFF783
:1022900066FF04208DF80700E4B2244830F81400EB
:1022A000ADF8040001A9E4B2214850F8240000F080
:1022B00049F8EDB2012D2ED1E4B21E4830F81410C9
:1022C000C9B2E4B21C4830F81400C0B200F0A4F85F
:1022D000E4B21A4830F81400029000208DF80C0087
:1022E00008208DF80D0001208DF80E0002A800F0E6
:1022F00087FBE4B2124830F814008DF800000F207C
:102300008DF801000F208DF8020001208DF80300E8
:1023100000A800F01FFB05B030BD00000C2D000828
:10232000142D000810000020182D00081A110008B4
:102330001800002002100008EA100008D21500085A
:102340002A180008F0B400220026002400250023EB
:10235000002791F803C01CF00F0C624691F803C0EF
:102360005FEACC6C01D58B781A430B781B0621D021
:102370000368002406E0CD78482D02D10125A54050
:102380000561641C082C14D20125A5400E882E403E
:10239000AE42F6D1A5000F2616FA05F7BB4312FA96
:1023A00005F52B43CD78282DE5D10125A5404561C4
:1023B000E7E703600B88FF2B26DD4368002420E05D
:1023C000012514F10806B5400E882E40AE4217D103
:1023D000A5000F2616FA05F7BB4312FA05F52B43A5
:1023E000CD78282D04D1012514F10806B5404561AA
:1023F000CD78482D04D1012514F10806B5400561BA
:10240000641C082CDCD34360F0BC704789B20161C6
:10241000704789B24161704710B400220F2311F058
:102420000304E4B2A400A3401A00C9B28B100E4CFE
:1024300054F8233033EA0202C9B28B100A4C44F834
:102440002320C9B28A10084B53F82220C0B211F0E1
:102450000303DBB29B0098401043C9B28910024AC3
:1024600042F8210010BC7047080001402DE9F043FC
:1024700085B004000D005FF0000900260427DFF896
:10248000D880A08881464FF6C07010EA090900A8DC
:10249000FFF704FE029880463048B8FBF0F00600D3
:1024A00056EA0909A4F8049020884FF6FE71084006
:1024B00020805FF000092868294988420CD22868EA
:1024C0004000B8FBF0F7BFB2042F00DA042757EA48
:1024D0000909701C208424E0E8884BF6FF718842CB
:1024E00005D1286803214843B8FBF0F706E02868C7
:1024F00019214843B8FBF0F757F48047380501D15C
:1025000057F0010757F4004050EA0909B6B24FF4FA
:10251000967000FB06F04FF47A7190FBF1F0401CCE
:102520002084A4F81C90208850F001002080B4F88A
:1025300000904FF6F53010EA0909A8886989084328
:1025400050EA0909A4F80090A88929890843208144
:1025500005B0BDE8F083000000127A0040420F0091
:10256000A186010041F288310160002181804BF693
:10257000FF71C18000210181002141814FF4804120
:1025800081817047C9B2002904D0018851F001014E
:10259000018004E001884FF6FE721140018070470F
:1025A000C9B2002904D0018851F48071018004E08F
:1025B00001884FF6FF62114001807047C9B20029BF
:1025C00004D0018851F40071018004E001884FF6C5
:1025D000FF52114001807047C9B2002904D0018820
:1025E00051F48061018004E001884FF6FF32114010
:1025F00001807047C9B201827047008AC0B270473B
:10260000D2B2002A02D051F0010101E011F0FE0126
:10261000C9B20182704770B4002300240025002253
:10262000868A3400008B05002D0455EA0400000260
:10263000000A030011EA0300884201D1012200E0F0
:1026400000221000C0B270BC704782B002000020AF
:10265000002301930023009300920A0F01920902C4
:10266000090A019A002A03D000981430009003E070
:10267000090C00981830009000980068084201D0BA
:10268000012000E00020C0B202B0704780B552497E
:1026900088420AD101214FF48040FFF780FD0021DC
:1026A0004FF48040FFF77BFD36E04C4988420AD169
:1026B00001215FF40030FFF782FD00215FF400305C
:1026C000FFF77DFD28E0464988420AD101215FF4E9
:1026D0008020FFF774FD00215FF48020FFF76FFD7D
:1026E0001AE0404988420AD101215FF40020FFF737
:1026F00066FD00215FF40020FFF761FD0CE03A4920
:10270000884209D101215FF48010FFF758FD0021B4
:102710005FF48010FFF753FD01BDF0B585B00400F4
:102720000D0000200021002200230026AF89002F89
:102730002600208A4CF6FF710840E9880843208271
:10274000A0894EF6F3110840A9882A8911436A89A5
:1027500011430843A081A08A4FF6FF410840A98990
:102760000843A08200A8FFF799FC1B48864201D1CC
:10277000039900E00299A089000407D5192000FB05
:1027800001F029684900B0FBF1F206E0192000FBD6
:1027900001F029688900B0FBF1F26420B2FBF0F08F
:1027A00000010109642303FB1123A189090408D551
:1027B000D90032316422B1FBF2F111F00701084374
:1027C00007E0190132316422B1FBF2F111F00F017F
:1027D0000843208105B0F0BD0038014000440040AE
:1027E00000480040004C0040005000404FF416519B
:1027F0000160002181800021C180002101810C2124
:102800004181002181817047C9B2002904D08189AA
:1028100051F40051818104E081894DF6FF7211402D
:1028200081817047C905C90D81807047002289B236
:10283000B1F5007F0088084201D0012200E00022AB
:102840001000C0B270470000002203881A001D4B20
:1028500098420ED0214B98420BD0B0F1804F08D057
:10286000194B984205D0194B984202D0184B984208
:1028700004D14FF68F731A404B881A43154B984278
:1028800007D0154B984204D04FF6FF431A40CB882F
:102890001A4302808A8882850A880285094A904202
:1028A0000BD00E4A904208D00D4A904205D00D4AF6
:1028B000904202D00C4A904201D1097A018601214E
:1028C00081827047002C0140000400400008004055
:1028D000000C004000100040001400400034014093
:1028E0000040014000440140004801404FF6FF71A4
:1028F0008180002101800021C180002141800021D0
:1029000001727047C9B2002904D0018851F0010159
:10291000018004E001884FF6FE721140018070478B
:10292000D2B2002A03D082891143818103E08289D7
:1029300032EA0101818170470022008A084201D0F9
:10294000012200E000221000C0B2704789B2C943E2
:102950000182704710B4002100220F23C478002C9C
:102960001ED01649096811F4E061D1F5E061090A49
:10297000D1F10402CB404178914082781A40114352
:10298000090102780E4BD154017849110D4A0123F7
:10299000007810F01F0013FA00F042F821000AE05E
:1029A00001784911084A0123007810F01F0013FA3A
:1029B00000F042F8210010BC704700000CED00E070
:1029C00000E400E000E100E080E100E00CB41CB5B0
:1029D000044604A801900A46009401AB00A90748E8
:1029E00078441830FDF79CFB009900220A700028FB
:1029F0005CBF0098001B16BC5DF80CFBB7E4FFFF42
:102A00000021214A11008279002A35D01E4A12681D
:102A100003689A431C4B1A601C4A126803689A4365
:102A20001A4B1A60027951180A6803681A430A603F
:102A30001749096802689143154A116015490968E8
:102A400002689143134A1160417910290CD1104951
:102A50000968026811430E4A11600E49096800684E
:102A600008430C4908600EE00749427951180A688A
:102A700000681043086006E0027951180A6800688F
:102A800032EA00000860704700040140040401407D
:102A9000080401400C04014080B54448006850F02F
:102AA00001004249086042480068424908404049E4
:102AB00008603E480068404908403C4908603B487F
:102AC000006830F48020394908603948006830F4E3
:102AD000FE003749086039485FF41F01016038483B
:102AE0000021016000F001F801BD80B500F001F89F
:102AF00001BD82B000200190002000902B480068AA
:102B000050F48030294908602848006810F40030EB
:102B100000900198401C01900098002803D1019872
:102B2000B0F5A06FF0D121480068800302D50120E4
:102B3000009001E0002000900098012833D11C484B
:102B40001B49096801601A48194909680160184859
:102B50001749096801601648006830F47C10144970
:102B600008601348006850F49810114908600F4835
:102B7000006850F080700D4908600C4800688001C2
:102B8000FBD50B48006880088000094908600848A8
:102B9000006850F00200064908600548006810F01F
:102BA0000C000828F9D102B0704700000010024064
:102BB000041002400000FFF8FFFFF6FE081002407C
:102BC0002C1002407047FEE7FEE7FEE7FEE7704785
:102BD0007047704780B5FEF72BFF01BD80B501211E
:102BE0000548FFF7A9FE012805D1FFF7CAF8012122
:102BF0000148FFF7ABFE01BD002C014010B50749AD
:102C000079441831064C7C44163404E00A68081DE7
:102C1000511888470146A142F8D110BD08000000B4
:102C20002800000037E2FFFF080000002400002019
:102C300000000000E3E1FFFF24000000A801000005
:102C4000000000200000000025642041313A2025CA
:102C5000382E3366202025382E3366202025382E46
:102C6000336620200000000041323A2025382E3300
:102C700066202025382E3366202025382E33660A1C
:102C8000000000002564204D313A202538642020C2
:102C900025386420202538642020000000F009F841
:102CA000002801D0FFF7AAFF0020FEF757FE00F032
:102CB00002F80120704700F001B8000007463846CE
:102CC00000F002F8FBE7000080B5C046C046024AAB
:102CD00011001820ABBEFBE7260002004D323A205F
:102CE000253864202025386420202538640A000017
:102CF0000148804701480047992A0008012D000833
:102D0000C046C046C046C046FFF7C8FF10000000DE
:102D1000100000000002000104000000FFF752BF95
:102D2000FFF751BFFFF750BFFFF74FBFFFF74EBF91
:102D3000FFF74DBFFFF74CBFFFF74BBFFFF74ABF91
:102D4000FFF7FEBFFFF7FEBFFFF7FEBFFFF7FEBFB7
:102D5000FFF7FEBFFFF7FEBFFFF7FEBFFFF7FEBFA7
:102D6000FFF7FEBFFFF7FEBFFFF7FEBFFFF7FEBF97
:102D7000FFF7FEBFFFF7FEBFFFF7FEBFFFF7FEBF87
:102D8000FFF7FEBFFFF7FEBFFFF7FEBFFFF7FEBF77
:102D9000FFF7FEBFFFF722BFFFF7FEBFFFF7FEBF43
:102DA000FFF7FEBFFFF7FEBFFFF7FEBFFFF7FEBF57
:102DB000FFF7FEBFFFF7FEBFFFF7FEBFFFF7FEBF47
:102DC000FFF7FEBFFFF7FEBFFFF7FEBFFFF7FEBF37
:102DD000FFF7FEBFFFF7FEBFFFF7FEBFFFF7FEBF27
:102DE000FFF7FEBF0000000001020304010203041C
:102DF00006070809001001400010014000080140CA
:082E00000204060800366E0111
:0400000508002CF1D2
:00000001FF
